:020000040800F2
:10000000704A0020010100080501000807010008EE
:10001000090100080B0100080D01000800000000A4
:100020000000000000000000000000000F010008B8
:1000300011010008000000005F0100083D240008D5
:100040009529000835200008FD24000859220008E1
:10005000AD0B0008112200086D0A0008B50A00085F
:10006000D90A0008FD0A0008210B00081701000842
:100070001701000817010008170100081701000800
:1000800017010008170100081701000817010008F0
:10009000492900081701000817010008450B00084E
:1000A000212500088D250008692500084525000840
:1000B000B1250008D52500080D260008490D0008C7
:1000C000250D0008910D00086D0D00087D22000827
:1000D000A1220008B12600081127000835270008D2
:1000E000910A00083522000825290008DFF80CD005
:1000F00000F0AEF800480047512F0008704A002079
:1001000005480047FEE7FEE7FEE7FEE7FEE7FEE7FD
:10011000FEE7FEE7FEE7FEE7ED000008EFF31080E4
:1001200072B6704780F3108870471D484FF0FF018A
:100130000170002080F309881A48012101701A48D3
:100140004FF08051016062B6FEE717484FF08051D2
:100150000160704714484FF080510160704772B6DB
:10016000EFF3098028B1203880E8F00F0F490968C3
:10017000086000B50E4880475DF804EB0D480E4955
:100180000A78027009480D490A680260106890E810
:10019000F00F203080F309884EF0040E62B67047ED
:1001A00022ED00E04600002004ED00E04C000020BD
:1001B000011700083F0000204000002054000020EC
:1001C00040EA01039B0703D009E008C9121F08C0D9
:1001D000042AFAD203E011F8013B00F8013B521E59
:1001E000F9D27047D2B201E000F8012B491EFBD2D0
:1001F00070470022F6E710B504460846114602464D
:100200002046FFF7EFFF204610BD30B50446002022
:10021000034600E05B1C934203D2E05CCD5C401BD4
:10022000F8D030BD30B50B46014600202022012415
:1002300009E021FA02F59D4205D303FA02F5491BB4
:1002400004FA02F52844151EA2F10102F1DC30BDCA
:10025000064C074D06E0E06840F0010394E8070013
:1002600098471034AC42F6D3FFF744FFF839000842
:10027000183A000810B54FF400400A4908604FF4DE
:1002800080700949C1F814084FF00A0001F03AFAE9
:10029000FFF744FF04460020044908702046FFF79A
:1002A00041FF10BD140C014000000140AD000020D2
:1002B00010B52048007870BB4FF400401E4908601C
:1002C0004FF4967001F01EFA4FF480701B49C1F88C
:1002D00010084FF47A7001F015FA4FF48040164977
:1002E00008604FF0320001F00DFA4FF480401349DE
:1002F000C1F8140C642001F005FA4FF480400E4957
:100300000860FFF70BFF044601200A4908702046E9
:10031000FFF708FF0CE04FF48040094908604FF0F8
:10032000C80001F0EFF94FF480400449C1F8100C07
:1003300010BD0000AD000020100C01400000014085
:10034000140C014008B50121042001F0D9FE01215F
:10035000082001F0D5FE0121082001F0D1FE012185
:10036000082001F0CDFE0121082001F0C9FE012185
:10037000102001F0C5FE0121082001F0C1FE01217D
:10038000102001F0BDFE4FF40040324908604FF4E8
:1003900080703149C1F81408ADF800004FF010002A
:1003A0008DF803004FF003008DF8020069462B48DA
:1003B00000F00EFC4FF40040ADF8000069462548FF
:1003C000143800F005FC4FF40040ADF80000694619
:1003D000234800F0FDFB0420ADF8000069461D48ED
:1003E000143800F0F5FB0320ADF800006946194809
:1003F000143800F0EDFB4FF40050ADF800006946F2
:10040000174800F0E5FB4FF48040ADF800001420E1
:100410008DF8030069460F48143800F0D9FB4FF4FB
:1004200080401049086002F0DFFA02200D490860A0
:100430004FF00100074908604FF0040009490860C7
:100440004FF400500649486141F28831064803F0F4
:1004500037F808BD140C01400000014000080140BD
:1004600000100140100C0140B000002011B9202202
:10047000C26001E0202202617047000010B5002137
:100480000378012202FA03F13B4A126842F00102AA
:100490003A4BC3F800261A46D2F81C2622EA01027B
:1004A000374B1A608278B2B9364A126822EA0102E2
:1004B000344B1A60C288438942EA0343324A0478C3
:1004C00042F834308288038942EA03432E4A047892
:1004D00002EBC40253608278012A16D1294A1268BD
:1004E00042EA0102274B1A60C288838842EA03432A
:1004F000254A047842F834304289038942EA0343AA
:10050000214A047802EBC402536042783AB91F4A88
:10051000126822EA0102194BC3F8042606E01B4ABE
:10052000126842EA0102154BC3F80426828932B9E7
:10053000174A126822EA0102104BC3F81426828976
:10054000012A06D1124A126842EA01020B4BC3F893
:100550001426827B012A06D1094A126842EA010266
:10056000064BC3F81C26044A126822F00102034B12
:10057000C3F8002610BD0000006600400060004087
:100580001C6600400C660040406600400466004067
:10059000146600401AB143690B43436102E04369AA
:1005A0008B434361704730B5024600200023146836
:1005B00024F002041460146844F00104146000E0A4
:1005C0005B1CA3F57F44FF3C04D0546804F0010495
:1005D000012CF5D1546804F00104012C01D0002055
:1005E0006EE00C78012C04D1146844F0800414608F
:1005F00003E0146824F0800414604C78012C04D1CA
:10060000146844F04004146003E0146824F04004CB
:1006100014608C78012C04D1146844F02004146018
:1006200003E0146824F020041460CC78012C04D179
:10063000146844F01004146003E0146824F01004FB
:1006400014600C79012C04D1146844F0080414607F
:1006500003E0146824F0080414604C79012C04D1E0
:10066000146844F00404146003E0146824F00404E3
:1006700014608C79A407CD7944EA05640D7A44EAC4
:1006800005444D7A44EA05544D896D1E2C43D461CE
:10069000146824F001041460002300E05B1CA3F53F
:1006A0007F44FF3C04D0546804F00104012CF5D0D1
:1006B000546804F00104012C01D1002000E0012065
:1006C00030BD00002DE9F0418AB004460D461646C3
:1006D0001F46DDF840800121042001F011FD0121B9
:1006E000480601F0FDFC4FF48050ADF824000320D3
:1006F0008DF8260018208DF8270009A92D4800F054
:1007000067FA4FF40060ADF8240048208DF8270008
:1007100009A9284800F05CFA00208DF818008DF82F
:1007200019008DF81A0001208DF81B0000208DF8AB
:100730001C008DF81D008DF81E808DF81F408DF86F
:1007400020608DF82150ADF8227006A91A48FFF7F5
:100750002AFF00208DF808008DF8090001208DF88F
:100760000A000020ADF80C00ADF80E00ADF8100046
:10077000ADF81200ADF8140001208DF8160002A8A3
:10078000FFF77CFE012202210B48FFF703FF142034
:100790008DF8040001208DF8050000208DF806007A
:1007A00001208DF8070001A800F0ACFB00200AB082
:1007B000BDE8F081000801400064004030B5044607
:1007C0000D46134604F5D87000EB0510006800F0E4
:1007D00004001872187A50B904F5D87000EB0510AF
:1007E000006840F2FF7101EA5050186009E004F51A
:1007F000D87000EB051000686FF0604101EAD0008E
:10080000586004F5D87000EB0510006800F0020095
:10081000587204F5D87000EB0510406800F00F0026
:10082000987204F5D87000EB05104068000AD8747F
:1008300004F5D87000EB05108068D87204F5D87004
:1008400000EB05108068000A187304F5D87000EBFF
:1008500005108068000C587304F5D87000EB051083
:100860008068000E987304F5D87000EB0510C0681E
:10087000D87304F5D87000EB0510C068000A18742E
:1008800004F5D87000EB0510C068000C587404F52E
:10089000D87000EB0510C068000E987429462046F9
:1008A000FFF7E4FD30BD00001CB500BF604802F05A
:1008B000EFFDE8B35E4802F0F8FD5E48006800789E
:1008C000002835DD002240F225515B4801F0B1FFE0
:1008D0005848006800785749096848700020554911
:1008E0000968087000247CE052490968891C0819CD
:1008F000022102F04FFC0746A7B34E480068801C57
:10090000011968467A68904758BB02208DF80000AC
:100910006846F9688847BDF8028004EB080085B294
:10092000444800684078401B1FFA80F926460CE0D6
:100930007AE040480068801C415D3E480068801CA9
:100940008155701C86B2681C85B204EB0900B04268
:10095000EFDC384800684078A0EB080035490968AA
:1009600048703CE0FFE733490968891C08190121F8
:1009700002F010FC074697B32E480068801C01194E
:1009800068467A68904750BB02208DF800006846A0
:10099000F9688847BDF8028004EB080085B2254855
:1009A00000684078401B1FFA80F926460BE021487A
:1009B0000068801C415D1F480068801C8155701CC8
:1009C00086B2681C85B204EB0900B042EFDC19481E
:1009D00000684078A0EB0800164909684870601C60
:1009E00084B2144800684078A0423FF77DAF1148B8
:1009F0000068407800280CDD0E48006840786428C4
:100A000007DC0C48006841780A480068801C02F046
:100A1000F1FD6A2107480068FFF7EBFB012240F275
:100A20002551054801F005FF022000F06BFE3DE76F
:100A30007C000020740000200038014000B501F067
:100A40000BFB0146002909DD0748007820B9012089
:100A5000054A1070084600BD0020FCE70020024A4D
:100A6000107000BFF7E70000A800002010B5FFF7E6
:100A700055FB044605480078401C04490870204690
:100A8000FFF750FB00F0A0FA10BD00003D00002071
:100A900010B5FFF743FB044605480078401C0449A5
:100AA00008702046FFF73EFB00F08EFA10BD0000F4
:100AB0003D00002010B5FFF731FB044605480078E3
:100AC000401C044908702046FFF72CFB00F07CFA1C
:100AD00010BD00003D00002010B5FFF71FFB0446CD
:100AE00005480078401C044908702046FFF71AFBAF
:100AF00000F06AFA10BD00003D00002010B5FFF7BD
:100B00000DFB044605480078401C04490870204647
:100B1000FFF708FB00F058FA10BD00003D00002070
:100B200010B5FFF7FBFA044605480078401C04495D
:100B300008702046FFF7F6FA00F046FA10BD0000F4
:100B40003D00002010B5FFF7E9FA04460848007898
:100B5000401C074908702046FFF7E4FA802000F0A7
:100B60000FF810B1802000F005F800F02DFA10BD4C
:100B70003D00002001490860704700001404014056
:100B8000014600200022074B1B6803EA0102064BC6
:100B9000D3F814340B4202D00AB1012000E0002047
:100BA00070470000000401400000014010B5FFF74D
:100BB000B5FA044605480078401C044908702046F0
:100BC000FFF7B0FA00F000FA10BD00003D00002071
:100BD0002DE9F041024600250026002000230024D4
:100BE000002791F803C00CF00F0591F803C01CF02A
:100BF000100F03D091F802C04CEA0505B1F800C00F
:100C00001CF0FF0F31D0146800202BE04FF0010CD6
:100C10000CFA00F3B1F800C00CEA03069E4220D1A2
:100C200083004FF00F0C0CFA03F7BC4305FA03FCEA
:100C30004CEA040491F803C0BCF1280F06D14FF030
:100C4000010C0CFA00FCC2F814C00AE091F803C0D1
:100C5000BCF1480F05D14FF0010C0CFA00FCC2F8B2
:100C600010C0401C0828D1D31460B1F800C0BCF1FA
:100C7000FF0F34DD546800202EE000F1080C4FF027
:100C8000010808FA0CF3B1F800C00CEA03069E4212
:100C900021D183004FF00F0C0CFA03F7BC4305FA87
:100CA00003FC4CEA040491F803C0BCF1280F05D101
:100CB00000F1080C08FA0CF8C2F8148091F803C08F
:100CC000BCF1480F07D100F1080C4FF0010808FAF9
:100CD0000CF8C2F81080401C0828CED35460BDE840
:100CE000F081416170470161704730B502460B46A3
:100CF000002010E012F8014B6040002109E010F0E4
:100D0000010F03D08C2484EA600000E040104C1CEA
:100D1000E1B20829F3DB1C00A3F10105EBB2E9D134
:100D200030BD000010B5FFF7F9F90446054800781A
:100D3000401C044908702046FFF7F4F900F044F91C
:100D400010BD00003D00002010B5FFF7E7F9044694
:100D500005480078401C044908702046FFF7E2F976
:100D600000F032F910BD00003D00002010B5FFF783
:100D7000D5F9044605480078401C0449087020460F
:100D8000FFF7D0F900F020F910BD00003D00002071
:100D900010B5FFF7C3F9044605480078401C044924
:100DA00008702046FFF7BEF900F00EF910BD0000F4
:100DB0003D00002070B517480068401C15490860C8
:100DC000002423E0144830F81400F0B1124830F841
:100DD000140010490968B1FBF0F200FB12153DB98F
:100DE0000E4A32F814100E4A52F82400FFF77BFF27
:100DF0000C4830F81400A84207D1084A32F8141001
:100E0000074A52F82400FFF76CFF641C042CD9D366
:100E100070BD00008C00002084000020D83900083C
:100E200090000020A000002008B50121082001F05A
:100E300067F90121082001F063F90121082001F080
:100E40005FF90121082001F05BF94FF40070ADF863
:100E5000000010208DF8030003208DF80200694681
:100E60001648FFF7B5FE4FF40070ADF800001020F3
:100E70008DF8030003208DF8020069460F48FFF744
:100E8000A7FE4FF40070ADF8000010208DF80300AD
:100E900003208DF8020069460848FFF799FE4FF4D9
:100EA0000070ADF8000010208DF8030003208DF8CD
:100EB000020069460148FFF78BFE08BD000C0140A7
:100EC00008B54FF4C06000F05FF827208DF80000EF
:100ED00000208DF801008DF8020001208DF803003C
:100EE000684600F00FF825208DF8000000208DF8EE
:100EF000010001208DF802008DF80300684600F023
:100F000001F808BD70B5002100230F22C4784CB34E
:100F10001A4C246804F4E064C4F5E0644FEA142138
:100F2000C1F1040322FA01F2447804FA03F184784F
:100F300004EA020444EA01014FEA0111104C067868
:100F4000A155047804F01F054FF0010404FA05F4DC
:100F500005784FEA65154FF0E02606EB8505C5F8E4
:100F6000004109E0047804F01F050124AC40054D60
:100F70000678761145F8264070BD00000CED00E0C3
:100F800000E400E080E100E002490143024A116010
:100F9000704700000000FA050CED00E010B500F00D
:100FA00011F800F0E7FD00F00FFE00F031FE00F058
:100FB000B9FD00F091FD00F05FFE00F085FE00F04D
:100FC00002F810BD7047704710B500241A48007829
:100FD000012830D1FFF7A2F804461848007800280D
:100FE00004DD16480078401E144908701348007844
:100FF000F0B913480078D8B900F0D2FE1148007853
:1010000011490978884213D010480E49097850F8E0
:1010100021000F49086008460068806B401C096881
:1010200088630C480068401C0A490860FFF792F882
:101030002046FFF777F810BD460000203D00002055
:101040003E000020400000203F000020A8130020A8
:10105000540000202400002070B5054600261248E8
:101060000078002801DD002070BDFFF757F8064624
:101070000E480468006820B10C48006840680B49BD
:1010800008603046FFF74EF85CB101202070002068
:10109000208165603F20E07300212174204600F02C
:1010A0000DFD2046E0E700003D0000202800002064
:1010B0002DE9F04105460F4614464FF00008287808
:1010C000012804D0012020700020BDE8F0813848BC
:1010D0000078002803DD022020700020F5E7354865
:1010E0000078002803DD0D2020700020EDE7FFF7D9
:1010F00015F880466E6846B1002068604046FFF7EC
:1011000011F8002020703046DFE72B48006890F887
:10111000300040F002002849096881F830000020C2
:101120002549096881F8310023480068C7852846A9
:1011300000F086FC4046FEF7F5FF00F0F7FDFEF7F5
:10114000EDFF80461C48006890F8310020B101286E
:101150000DD002280AD105E017480068466A002031
:1011600020700DE000260E20207009E000BF294607
:101170001148006800F030FC00260A20207000BFF3
:1011800000BF00200C49096881F830000A4909684D
:1011900081F8310008490968C8610749096808628F
:1011A0000549096848624046FEF7BCFF30468CE7B7
:1011B0003D0000203E0000204C00002070B5044699
:1011C0000D4600262078012801D0012070BDFEF7D1
:1011D000A5FF0646A07A60B10023022229462046D8
:1011E00000F0B0FB3046FEF79DFF00F09FFD0020B1
:1011F000ECE7606820B13046FEF794FF1420E5E785
:1012000065603046FEF78EFF0020DFE72DE9F041F4
:1012100005460E46002721480078002804DD1020EE
:1012200030700020BDE8F081FEF778FF07461C48CB
:1012300050F8250030B13846FEF774FF2820307092
:101240000020EFE70120164941F825001548046801
:101250004CB9002041F825003846FEF763FF042012
:1012600030702046DEE70F48006840680D4908608E
:101270003846FEF757FF04202070280240F0FF0098
:101280002081002060603F20E0730021217420460F
:1012900000F014FC002030702046C3E73D00002021
:1012A000A81300202800002010B50B48007890B942
:1012B00000F076FD09480078094908700948074997
:1012C000097850F821000849086008460068074975
:1012D0000860FEF72AFF10BD4600002040000020F5
:1012E0003F000020A8130020540000204C000020E4
:1012F00010B50024022000F005FAFEF70FFF0446A7
:1013000000200B4908602046FEF70CFF642000F027
:10131000F9F9FEF703FF044605480068054908602F
:101320000120054908702046FEF7FCFE10BD0000B4
:1013300048000020340000203C00002070470000DE
:101340002DE9FE4F06460F4690461C464FF0000919
:10135000FEF7E4FE81461F480078002805DD484678
:10136000FEF7E0FE3C20BDE8FE8F1B4850F824004D
:1013700058BB0120184941F824004846FEF7D2FE28
:10138000002342463946304600F018F982460023D1
:10139000009301931A4651462046029300F02EFD19
:1013A000054635B90D48007801280CD100F0BEFC87
:1013B00009E0FEF7B3FE81460020074941F824000A
:1013C0004846FEF7AFFE2846CDE74846FEF7AAFEA0
:1013D0002820C8E73D000020A81300204600002078
:1013E0002DE9FF4F85B08046894692461C46DDE9CF
:1013F00012B6169F00200390FEF790FE039023483C
:101400000078002806DD0398FEF78CFE3C2009B02A
:10141000BDE8F08F1E4850F8240088BB01201C490D
:1014200041F824000398FEF77DFE3A4630461499B1
:1014300000F0F2FD3B4652464946404600F0BEF8F9
:101440000490DDE914125B468DE8860032462046A2
:10145000049900F0D3FC054635B90E480078012800
:101460000CD100F063FC09E0FEF758FE0390002069
:10147000074941F824000398FEF754FE2846C6E7C2
:10148000FFE70398FEF74EFE2820C0E73D0000204E
:10149000A813002046000020704770472DE9F04750
:1014A0000646884614464FF000091D48007800287B
:1014B00003DD12202070BDE8F087FEF72FFE814685
:1014C000FF2E03D11748006890F83260164850F894
:1014D00026502DB94846FEF725FE43202070EAE746
:1014E000012D05D14846FEF71DFE43202070E2E79E
:1014F000404600F079FC07460F2F05DD4846FEF711
:1015000011FE41202070D6E7414605F14C0000F065
:101510005DFC4846FEF706FE0020207000BFCAE7CB
:101520003D0000204C000020A81300207047000060
:101530002DE9F04707460D464FF0000A00202860CD
:101540006860FEF7EBFD8246FF2F03D11948006863
:1015500090F83270184850F827402CB95046FEF7E2
:10156000E1FD4320BDE8F087012C04D15046FEF791
:10157000D9FD4320F6E7208A10F0010F04D1504630
:10158000FEF7D0FD4520EDE70026D4F80C90D4F806
:1015900008805046FEF7C6FD00E0761C58F8041B94
:1015A0000029FAD0B0002860A9EB0600800068602E
:1015B0000020D7E74C000020A813002070B5044697
:1015C00010464FF080750560051F28462C606FF0AF
:1015D0000106051F28462E604FF01236051F2846CB
:1015E0002E604FF00336051F28462E604FF002365E
:1015F000051F28462E607610051F28462E60051F01
:10160000284629604FF01136051F28462E604FF0FE
:101610001036051F28462E604FF00936051F284654
:101620002E604FF00836051F28462E604FF0073613
:10163000051F28462E604FF00636051F28462E60EF
:101640004FF00536051F28462E604FF00436051F63
:1016500028462E6070BD00002DE9F04105464FF090
:101660000008FEF75BFD8046FF2D05D1204800688D
:1016700090F83250012608E01D48006890F83200CA
:10168000A84201D1012600E000261A4850F8254062
:101690002CB94046FEF746FD4820BDE8F081012CFC
:1016A00004D14046FEF73EFD4320F6E794F834703F
:1016B0001148C05D94F8351088430F49C855084655
:1016C000C05D30B994F836100C48007888430B4957
:1016D000087094F8300040F0080084F8300040466C
:1016E000FEF720FD012E01D100F020FB0020D4E701
:1016F0004C000020A81300204200002041000020E0
:101700007047000070B5054600261648007800288E
:1017100000DD70BD002D23DDFEF700FD06461248FA
:10172000006890F834401148005D0F49096891F84D
:10173000351088430D4908550846005D40B90A48F0
:10174000006890F836100A48007888430849087005
:1017500005480068C5853046FEF7E4FC00F0E6FA6F
:1017600000BFD6E73D0000204C00002042000020D2
:10177000410000202DE9F0470746884691461E4665
:1017800017480078002802DD5520BDE8F0874FF4A7
:101790007A7070434FF47A71B0FBF1F14FF46160ED
:1017A0007843C8EB081200EB8200484400EB40028B
:1017B000C2EBC01001EBC004250CA4B22046FFF719
:1017C000A1FF09E04FF40040FFF79CFF4FF40040F9
:1017D000FFF798FF681E85B2002DF3DC0020D4E7E8
:1017E0003D00002070B5002600F076F8FEF796FC6C
:1017F000064633480068401C314908603046FEF711
:1018000091FC30480078012858D12F48007820B149
:10181000012804D0022809D103E001250BE00025AE
:1018200009E0012501202849087004E00125002075
:101830002549087000BF00BF05B970BD2348046882
:1018400038E0FEF76BFC0646E08D78B3E08D401E75
:101850000004000CE08529D194F8300010F0370F17
:1018600009D014F8300F20F037002070012060708C
:10187000A4F1300402E0002084F8310094F8300034
:1018800010F0080F12D104F13404A078104909783F
:1018900040EA01000E49087020780E49085C617822
:1018A00040EA010014F834190A4A50546469304679
:1018B000FEF738FC94F832001F28C2D100BFBCE705
:1018C00060000020460000205C000020580000203E
:1018D000410000204200002010B5FFF76BFA10BD58
:1018E000154909684FF47A72B1FBF2F0B0F1807FCC
:1018F00001D301211CE020F07F41491E4FF0E0227E
:10190000516100BF5117002905DA0F2109010B4A67
:101910000B23D15404E00F210901094A5317D15474
:1019200000BF00214FF0E0229161072111610021E9
:1019300009B100BFFEE77047C438000818ED00E0A9
:1019400000E400E02DE9F04F05460F469046994629
:10195000A87A1D490E5C05F10B00805D11F800B0FE
:101960000BEBC60000F0FF0A184850F82A40002090
:1019700004F1240460812760207B20EA08002073A2
:1019800084F80D90207BA4F1240410F0080F0DD1F1
:1019900094F836000E49097808430D4908700D483F
:1019A000805D94F8351008430A4988552946204639
:1019B00000F012F8206A20B12046216A00F021F8D8
:1019C000E5615046BDE8F08FD8380008A813002024
:1019D000410000204200002010B590F8342001F1B1
:1019E0000B039B5C90F83540A34301F10B04A35417
:1019F00023469B5C23B98B7A90F83640A3438B72C5
:101A000010BDF0B5024612F8344F95785678A2F121
:101A100034020B4618680FE000F10B073F5DB74337
:101A200000F10B0C0CF8047067463F5D17B9877A1C
:101A3000AF4387721B1D18680028EDD1F0BD000070
:101A400010B51B4A1268D061194A126892F83430F6
:101A500000F10B02D25C164B1B6893F835301A4329
:101A6000134B1B6893F8344000F10B031A55827A2C
:101A70000F4B1B6893F836301A4382720C4A126877
:101A800092F834100B4A525C094B1B6893F83530BE
:101A90009A43084B5A541A46525C42B9044A126897
:101AA00092F83630044A12789A43034B1A7010BDEC
:101AB0004C000020420000204100002000238372DF
:101AC00000F10B01002204E0002301F8013B531C4C
:101AD000DAB2042AF8DB704770B58C210F4800F0A9
:101AE0001BF90E4C04F11C0600250AE000202070B2
:101AF00066603F20A0720021E1721C341C36681C15
:101B000085B2042DF2DB0020207060603F20A072BF
:101B10000021E17201480249086070BD1C0F0020DD
:101B20002C00002030B54FF4A071104800F0F4F8FC
:101B30000E4B03F1200500240AE0002018705D60C0
:101B40003F20D8730021197420332035601C84B2E3
:101B5000092CF2DB0020187058603F20D873002158
:101B6000197402480249086030BD0000DC0D0020F5
:101B70002800002000200A4908600A4908700A4924
:101B800008700A4908700A4908700A4908600A4939
:101B900008600A4908600A4908600A4908707047E5
:101BA000600000203D0000203E0000204700002093
:101BB00046000020240000204800002038000020BB
:101BC000340000203C00002000220B4B1A700B490F
:101BD000002004E0002201F8012B421CD0B20428AE
:101BE000F8DB0022064B1A70064B1A70064B1A607F
:101BF000064B1A60704700004100002042000020A0
:101C00003F00002040000020540000204C00002035
:101C100030B54FF4FD61144800F07EF88021134880
:101C200000F07AF8104B03F15C0500240AE05D61D6
:101C30003F2083F84C0000214D20C1545C335C35BB
:101C4000601CC4B2152CF2D3002058613F2083F8E9
:101C50004C0000214D20C154002005490860024875
:101C60000449086030BD000028140020A81300209B
:101C7000580000205000002000B587B00323002248
:101C800080210B48CDE90323CDE901014FF6FF7315
:101C900000931F2300F5FE7200210648FFF7A0FB0A
:101CA00006AA05A11F20FFF7F9FB07B000BD000041
:101CB000A8110020311F000875432F4F532D4949AB
:101CC0002049646C6500000000B587B00323002242
:101CD00080210B48CDE90323CDE901014FF6FE73C6
:101CE00000931E2300F5FE7200210648FFF778FBE3
:101CF00006AA05A11E20FFF7D1FB07B000BD00001A
:101D0000A80F0020551F000875432F4F532D494938
:101D1000205374617400000004E0002200F8012BDD
:101D20004A1E91B20029F8DC7047000010B500246B
:101D3000FEF7F4F9044613480078F0B91248007829
:101D4000D8B900F02DF81148007811490978884277
:101D500013D010480D49097850F821000E49086049
:101D600008460068806B401C096888630B4800685F
:101D7000401C0A490860FEF7E8F92046FEF7D2F950
:101D800010BD00003D0000203E000020400000206B
:101D90003F000020A8130020540000202400002051
:101DA0000649074A1278885C0649095C034A515C77
:101DB00001EBC001044A117070470000D8380008D8
:101DC0004100002042000020400000200246002088
:101DD00005E011F8013B02F8013B431CD8B20B7837
:101DE000002BF6D1137070470146002002E0491C19
:101DF000421CD0B20A78002AF9D170472DE9F84F79
:101E000005460E4617469846DDE90BABDDF82890EF
:101E100000200090FEF782F900903F480468ECB380
:101E200004F1180454F8040C3B4908600098FEF7CC
:101E300079F944F8186CA576002020766076E08267
:101E400044F814AC44F80C9C44F8107C24F808BC0A
:101E500024F8068CE077E810207705F00700E0769C
:101E6000217F01208840A077E17E012088406077B3
:101E700000206060A0602061E0602062A06260627B
:101E8000E06220633F2084F83400A4F118044FF08E
:101E900000014FF04D000155204600E036E0FFF70D
:101EA0004DFA2046FFF7F8FAFEF738F900901B4884
:101EB00040F825401A48006860610020A061184879
:101EC000006810B11648006884611548046004F188
:101ED0003404A0781349097840EA010011490870D8
:101EE00020781149085C617840EA010014F834193F
:101EF0000D4A50540D48007800F101000B4908705C
:101F00000098FEF70FF90020BDE8F88F0098FEF763
:101F100009F94220F8E7000050000020A813002033
:101F2000580000204100002042000020470000200F
:101F3000002400BFFEF7F2F8044605480068401C84
:101F4000034908602046FEF7EDF8FFF7A6FAF1E72F
:101F500048000020002402E0C820FFF7D3FB1A4805
:101F600000780028F8D0194800686421B0FBF1F02F
:101F7000164908600846006828B90020144908700E
:101F8000FF20FFF769FB00BFFEF7C8F804461148C1
:101F900000681149086000200E4908602046FEF7DD
:101FA000C1F80D48006809490968B0FBF1F0C0F1BB
:101FB000640007490870FFF7B9FA00F00FF86420D1
:101FC000FFF7A0FBE0E700003C0000203400002009
:101FD0003000002048000020380000207CB500259B
:101FE00014E069462846FFF7A3FA064666B9094891
:101FF00050F8254044B1012C06D0D4E9020100EB91
:10200000810060640198A064681CC5B21F2DE8DDE2
:102010007CBD0000A813002012F0010F08D012F0C0
:10202000020F05D002E0491E002308C00029FAD1A2
:102030007047000010B5FEF771F8044605480078B7
:10204000401C044908702046FEF76CF8FEF7BCFF00
:1020500010BD00003D0000200448006810F0010F92
:1020600001D1012070470020FCE700000808014072
:1020700008B500BF00BF6A46042116480068FFF794
:1020800017F804469DF800000A280DD0002CF2D065
:102090002078022802D1FEF70BF9ECE7207801281E
:1020A000E9D1FEF7E7F8E6E7FEF7C8FC012801D121
:1020B000FEF7FEF8084800780028DCD1074801F058
:1020C000E7F90028D7D0054801F0EFF900F08CFCC3
:1020D000D1E7000008000020AC000020B000002084
:1020E00029B1064AD2690243044BDA6104E0034A8B
:1020F000D2698243014BDA61704700000010024050
:1021000029B1064A92690243044B9A6104E0034AEA
:1021100092698243014B9A617047000000100240AF
:1021200000B585B000F0C2F9684600F003F805B0CC
:1021300000BD000030B500210022002400232D4DF9
:102140006D6805F00C0121B1042905D0082923D1BF
:1021500005E0294D056022E0284D05601FE0254D72
:102160006D6805F47012022505EB9242214D6D68F1
:1021700005F480341CB9224D554305600BE01D4D1C
:102180006D6815F4003F03D01E4D5543056002E015
:102190001A4D5543056002E0174D056000BF00BFB2
:1021A000144D6D6805F0F0010909174D6B5C056869
:1021B000DD4045600F4D6D6805F4E061090A124D80
:1021C0006B5C4568DD4085600A4D6D6805F46051C3
:1021D000C90A0D4D6B5C4568DD40C560054D6D68F5
:1021E00005F44041890B094D6B5CC568B5FBF3F5FF
:1021F000056130BD0010024000127A00001BB700DC
:1022000000093D00808D5B001000002020000020B0
:1022100010B5FDF783FF044605480078401C0449CB
:1022200008702046FDF77EFFFEF7CEFE10BD0000D1
:102230003D00002010B5FDF771FF04460548007809
:10224000401C044908702046FDF76CFFFEF7BCFEF9
:1022500010BD00003D00002010B5FDF75FFF0446F3
:1022600005480078401C044908702046FDF75AFFD5
:10227000FEF7AAFE10BD00003D00002010B5FDF7DE
:102280004DFF044605480078401C0449087020466C
:10229000FDF748FFFEF798FE10BD00003D0000204E
:1022A00010B5FDF73BFF044605480078401C044983
:1022B00008702046FDF736FFFEF786FE10BD0000D1
:1022C0003D00002010B500F001F810BD00210020F5
:1022D000304A126842F480322E4B1A6000BF2D4AF9
:1022E000126802F40030491C10B9B1F5706FF6D1D4
:1022F000284A126812F4003F01D0012000E00020BB
:10230000012843D1244A126842F01002224B1A607D
:102310001A46126822F003021A601A46126842F046
:1023200002021A601B4A52681A4B5A601A465268D7
:102330005A601A46526842F480625A601A465268DD
:1023400022F47C125A601A46526842F488125A608B
:102350001A46126842F080721A6000BF0D4A126875
:1023600012F0007FFAD00B4A526822F00302094BA8
:102370005A601A46526842F002025A6000BF054A8B
:10238000526802F00C02082AF9D101E000BFFEE712
:1023900070470000001002400020024008B5FFF71F
:1023A0009FFAFEF7A5FF69460620FEF72FFF1A49A0
:1023B00008600020FEF750FE18490860FEF780FD17
:1023C0000723174A00211748FEF7BAFF0090092398
:1023D000154A00211548FEF7B3FF00900B23144A5D
:1023E00000211448FEF7ACFF00909DF8000000901B
:1023F00032224FF4FA61002000F02EF900BF0020D5
:1024000000F06AFE0C4908700223002211461046B3
:10241000FFF7B0F9F3E700000400002008000020F7
:10242000D8080020112A0008D80C0020A9080008AC
:10243000D80D0020712000080100002010B5FDF724
:102440006DFE044608480078401C07490870204685
:10245000FDF768FEFFF7C6F904480068401C034911
:102460000860FEF7B1FD10BD3D0000200C0000200B
:1024700008B5FFF755FEFEF7D7FCFDF763FF01F047
:1024800027F800F05BFC002000F0ACFD00F0A4FE9B
:1024900001F0A6F900F064FF002300930523062253
:1024A00007210020FEF70EF908BD000010B5104806
:1024B000006840F001000E490860084640680D4978
:1024C00008400B494860084600680B490840084925
:1024D00008600846006820F48020086008464068CC
:1024E00020F4FE00486000208860FFF7EBFE10BD7E
:1024F000001002400000FFF8FFFFF6FE10B5FDF7E8
:102500000DFE044605480078401C0449087020462A
:10251000FDF708FEFEF758FD10BD00003D0000204D
:1025200010B5FDF7FBFD044605480078401C044942
:1025300008702046FDF7F6FDFEF746FD10BD0000D1
:102540003D00002010B5FDF7E9FD04460548007880
:10255000401C044908702046FDF7E4FDFEF734FDF9
:1025600010BD00003D00002010B5FDF7D7FD04466A
:1025700005480078401C044908702046FDF7D2FD4C
:10258000FEF722FD10BD00003D00002010B5FDF754
:10259000C5FD044605480078401C044908702046E3
:1025A000FDF7C0FDFEF710FD10BD00003D0000204E
:1025B00010B5FDF7B3FD044605480078401C0449FA
:1025C00008702046FDF7AEFDFEF7FEFC10BD0000D2
:1025D0003D00002010B5FDF7A1FD04460948007834
:1025E000401C084908702046FDF79CFD0121064863
:1025F00000F021F818B10121034800F019F8FEF7A6
:10260000E3FC10BD3D0000200004004010B5FDF7C4
:1026100085FD044605480078401C044908702046A2
:10262000FDF780FDFEF7D0FC10BD00003D0000204E
:10263000CA430282704730B50246002000230024BE
:10264000158A05EA0103958905EA010413B10CB165
:10265000012000E0002030BD70B504460E4615464E
:1026600000200F4921F8140045B90E4A32F8141021
:102670000D4A52F82400FEF734FB10E0AE4208D1B8
:10268000084A32F81410084A52F82400FEF72BFBCF
:1026900005E0034820F81460044820F8145070BD89
:1026A00084000020D839000890000020A0000020FD
:1026B00010B5FDF733FD044613480078401C12495D
:1026C00008702046FDF72EFD40F225510F4800F01E
:1026D0008AF808B100F0A0FB40F227710B4800F027
:1026E00082F808B100F0F6FB0821084800F072F803
:1026F000012806D10821054800F04CF8034800F0F5
:1027000007F9FEF761FC10BD3D00002000380140D4
:1027100010B5FDF703FD044605480078401C044948
:1027200008702046FDF7FEFCFEF74EFC10BD0000D1
:102730003D00002010B5FDF7F1FC04461348007879
:10274000401C124908702046FDF7ECFC40F2255170
:102750000F4800F048F808B100F02AFF40F2277156
:102760000B4800F040F808B100F080FF082108484D
:1027700000F030F8012806D10821054800F00AF8D9
:10278000034800F0C5F8FEF71FFC10BD3D00002017
:1027900000480040CA430280704710B5024600203E
:1027A000108A4FF2FF0318400B884C8823438C8813
:1027B0002343CC8823431843108210BD21B1828962
:1027C00042F40052828104E082894DF6FF731A4080
:1027D000828170470246002013880B4201D00120FD
:1027E00000E00020704770B502460B46002400212F
:1027F00000250020C3F3421503F01F01012606FA4D
:1028000001F1012D02D19689314006E0022D02D15D
:10281000168A314001E0968A31401C12012606FAE0
:1028200004F41688344011B10CB1012000E00020FE
:1028300070BDF0B503460024002600250020184690
:10284000C1F3421401F01F06012707FA06F5012C17
:1028500001D10C3004E0022C01D1103000E0143022
:102860001AB107682F43076002E00768AF430760AB
:10287000F0BD00002DE9F04786B005460E46002465
:10288000A24600BF00BF00272F462C8A4CF6FF70DF
:102890000440F08804432C82AC894EF6F3100440C7
:1028A000B08831890843718908430443AC81AC8AFC
:1028B0004FF6FF400440B0890443AC8201A8FFF703
:1028C00039FC1248874202D1DDF810A001E0DDF8A2
:1028D0000CA00AEBCA0000EB0A1031688900B0FBBB
:1028E000F1F86420B8FBF0F004012009642101FB39
:1028F0001089322000EB0910B0FBF1F000F00F005E
:1029000004432C8106B0BDE8F08700000038014088
:1029100001468888C0F308007047C1F3080282802E
:102920007047000010B5FDF7F9FB04460548007834
:10293000401C044908702046FDF7F4FBFEF744FBF9
:1029400010BD00003D00002010B586B0002401AA93
:1029500000210848FDF732FF00BF07E00DF10F002E
:10296000025D214604A000F019F9641C082CF5DB77
:1029700006B010BD0064004072786275665B256425
:102980005D3A25640D0A0000024610460002084325
:102990007047000010B5FDF7C1FB044605480078FC
:1029A000401C044908702046FDF7BCFBFEF70CFBF9
:1029B00010BD00003D00002010B54FF40040074955
:1029C0004861FDF7ABFB044600200549087020462E
:1029D000FDF7A8FB034800F06DFD10BD001001409D
:1029E000AC000020B000002010B54FF400400649B4
:1029F0000861FDF793FB0446012004490870204656
:102A0000FDF790FB10BD000000100140AC0000205D
:102A10001CB500BF5E4800F03BFDE8B35C4800F029
:102A200044FD5C4800680088002835DD002240F243
:102A300025515948FFF7FDFE564800680088554962
:102A400009684880002053490968088000247CE018
:102A500050490968091D0819022100F09BFB07462F
:102A6000A7B34C480068001D011968467A68904772
:102A700058BB01208DF800006846F9688847BDF80A
:102A8000028004EB080085B2424800684088401B81
:102A90001FFA80F926460CE076E03E480068001DEB
:102AA000415D3C480068001D8155701C86B2681C61
:102AB00085B204EB0900B042EFDC3648006840887C
:102AC000A0EB08003349096848803CE0FFE7314942
:102AD0000968091D0819012100F05CFB074697B33E
:102AE0002C480068001D011968467A68904750BB61
:102AF00001208DF800006846F9688847BDF802801B
:102B000004EB080085B2234800684088401B1FFA88
:102B100080F926460BE01F480068001D415D1D48F6
:102B20000068001D8155701C86B2681C85B204EBDC
:102B30000900B042EFDC174800684088A0EB0800AD
:102B4000144909684880601C84B2124800684088B3
:102B5000A0423FF77DAF0F4800684088002808DD9D
:102B60000C4800684088C1B20A480068001D00F0A7
:102B700075F96A2107480068FDF73BFB012240F226
:102B800025510548FFF755FE0220FEF7BBFD41E742
:102B90006C00002064000020004800400FB4054B8A
:102BA00010B503A9044A029800F018F810BC5DF8AB
:102BB00014FB00002D2F0008D800002002E008C8F8
:102BC000121F08C1002AFAD170477047002001E0A7
:102BD00001C1121F002AFBD1704700002DE9FF4FF1
:102BE00089B004469B46002597E0252832D100276E
:102BF000641C4E4AB84601212378203B01FA03F0B9
:102C0000104202D00743641CF6E720782E2819D121
:102C100014F8010F47F004072A280ED06FF02F0296
:102C20002078A0F1300109290CD808EB880102EBCB
:102C3000410100EB0108641CF2E70A98641C50F89B
:102C4000048B0A902078F0B3642808D0692806D055
:102C500075281FD05A460B9990476D1C5CE00A9965
:102C60004FF00A0901C90A91002804DAC0F10000F6
:102C70004FF02D0102E0390504D52B218DF82010ED
:102C8000012104E0F90701D02021F7E700218A465D
:102C900008AE0CE00A994FF00A0901C90A91F5E75C
:102CA0004946FDF7BFFA01F1300106F8011D002881
:102CB000F6D1ADEB060000F12009780701D44FF002
:102CC0000108002000E02CE041464A46C84500DDEE
:102CD000881A8046002706E008A85A46C05D0B996E
:102CE00090476D1C7F1C5745F6DB04E030205A46A8
:102CF0000B9990476D1CB8F10001A8F10108F5DCB3
:102D000005E016F8010B5A460B9990476D1CB9F176
:102D10000001A9F10109F4DC641C207800287FF48B
:102D200064AF0DB02846BDE8F08F0000092801000F
:102D300001480068704700000C00002000B587B013
:102D4000012144F20500FFF7DBF94FF40070ADF804
:102D5000180003208DF81A0018208DF81B0006A912
:102D60002848FDF735FF4FF48060ADF818000420C7
:102D70008DF81B0006A92348FDF72AFF4FF4E13028
:102D800002900020ADF80C00ADF80E00ADF8100078
:102D9000ADF814000C20ADF812000020ADF80000D2
:102DA000ADF802004FF40070ADF804000020ADF85B
:102DB000060069461448FFF7F0FC02A91248FFF725
:102DC00059FD012240F225510F48FFF732FD002244
:102DD00040F227710C48FFF72CFD01210A48FFF74C
:102DE000EDFC0521094800F06BFB672108480068ED
:102DF000FDF7FFF9672107480068FDF7FAF907B00A
:102E000000BD000000080140003801407C000020A7
:102E1000740000207800002010B50D48006800788C
:102E2000642814DA0B4800F045FB0B48FFF770FDEF
:102E3000C1B2074800680278054800680078401C65
:102E4000034B1B68187002480068801C815410BD39
:102E5000740000207C0000200038014070B5054659
:102E60000C46642C2FDC00BF1848006890F8660000
:102E7000C0F300000128F7D0FDF750F90646012104
:102E80001248006890F8660061F300000F49096875
:102E900081F86600224629460C480068801CFDF730
:102EA0008FF90A48006844700020084909680870D2
:102EB0003046FDF737F9012240F227710448FFF749
:102EC000B8FC002070BD4FF0FF30FBE77800002019
:102ED0000038014010B513480068007811490968AE
:102EE0004978884211DA0F48006802780D48006876
:102EF000801C815C0C48FFF710FD0A4800680078D0
:102F0000401C0849096808700AE0002240F2277155
:102F10000548FFF78EFC672102480068FDF769F954
:102F200010BD0000780000200038014070B5044654
:102F30000D46E1B20548FFF7F0FC00BF80210348D1
:102F4000FFF748FC0028F9D0204670BD004800403B
:102F5000FFF78EFAFEF722F80523054A00210548FF
:102F6000FEF7EEF900BFFEF79FF900BFFEE7000095
:102F7000D80400209D2300082DE9F04104460E46A8
:102F80001548005D38B9144818380168204688474C
:102F90000120BDE8F081114850F82400B04219D951
:102FA0000F4850F82400B6FBF0F10B48083850F8F1
:102FB000240030F81120002508E0002306480838D6
:102FC00050F824004F1920F817306D1C9542F4DB9F
:102FD0000020DEE70220DCE7D4000020F039000802
:102FE000E839000810B504460C4951F824104A008D
:102FF0000B4951F82400002100F0C2F8094951F8AA
:1030000024200749083951F82400002100F0B8F8BD
:10301000012103480830015510BD0000E0390008C7
:10302000CC000020F03900082DE9F04704460F4697
:103030000025A9462548005D20B9244818380168B4
:10304000204688471FB94FF0FF30BDE8F087204881
:1030500050F82400B7FBF0F086B21D4850F8240069
:10306000B7FBF0F100FB117008B1701C86B2194873
:1030700050F82400451E24E01448083850F8240075
:1030800030F8150020B909F101001FFA80F901E0BC
:103090004FF00009B14513D14FF0000809E00B488B
:1030A000083850F8240005EB080120F8116008F1F9
:1030B0000108B045F3D3064850F824006843C4E73C
:1030C0006D1E002DD8DA4FF0FF30BEE7D40000208F
:1030D000E8390008E039000810B501460023002255
:1030E00007E00B4850F8210030F8120000B15B1CDB
:1030F000521C084850F821009042F2D864205843EE
:10310000044C54F82140B0FBF4F0C0B210BD0000F4
:10311000CC000020E03900082DE9F04105460C46BE
:103120000CB9BDE8F081FCF7F9FF0746064850F8F6
:103130002500261A31462846FFF71EFF3846FCF7C1
:10314000F1FF00BFEDE70000C40000202DE9F041D1
:1031500004460E46FCF7E2FF074631462046FFF7DD
:1031600063FF05463846FCF7DDFF681C01D1BDE86A
:10317000F081024850F824002844F8E7C4000020F9
:1031800030B5034601E003F8011B1400A2F101026F
:10319000F9D130BD70B505460E46002411E004EBB0
:1031A00084010B4A02EB810032462946FDF72DF8D7
:1031B00028B904EB8400064901EB800070BD601C57
:1031C000C4B2044800788442E9DB0020F6E700003E
:1031D000B41D0020BA00002010B50020034908707B
:1031E00014210348FDF705F810BD0000BA000020C7
:1031F000B41D002010B5044608490A780978491C16
:10320000064B197002EB8201054A02EB8100142281
:103210002146FCF7D5FF0148007810BDBA00002018
:10322000B41D002070B50446E179A079FFF7ACFB2E
:1032300086B206F10A0085B2605DFF2805D1681CE0
:10324000205CAA2801D1002070BD4FF0FF30FBE7C1
:103250002DE9F04106460D462846FFF7E3FF00281A
:1032600003DA4FF0FF30BDE8F0816C210020FFF75A
:103270006DFF044614B94FF0FF30F4E7E978A87801
:10328000FFF782FB208069792879FFF77DFB60805A
:10329000E979A879FFF778FBA080A088083087B289
:1032A0007A1CA95CE85DFFF76FFBA4F86A00A088B0
:1032B000642806DCA28805F10801A01DFCF780FF48
:1032C00006E021460020FFF727FF4FF0FF30CAE756
:1032D000A0880C30708074600020C4E770B505468B
:1032E0006C682088722804D0732820D074282AD1D2
:1032F00023E0A088A8B1617A207AFFF745FB86B267
:10330000002E07DD02201449087014480068FDF7FC
:1033100055FF06E001201049087010480068FDF7CD
:103320004DFF75202080284600F03CF80CE001207D
:103330002870284600F036F806E00220287028465B
:1033400000F030F800E000BF00BF21460020FFF78A
:10335000E3FE002070BD0000B9000020080000203E
:1033600000B585B0FF208DF8000055208DF80100D4
:10337000FF208DF80200AA218DF803100648019065
:103380000648029006480390002004906846FFF724
:1033900031FF05B000BD000051320008A533000820
:1033A000DD3200082DE9F04707467E68B0880C3012
:1033B00000F0FF0800254FF0FF3941460020FFF7DD
:1033C000C5FE0446ECB3FF222846691CCDB2225448
:1033D00055222846691CCDB2225430880012294655
:1033E0006A1CD5B260543088C2B22846691CCDB27E
:1033F00022547088001229466A1CD5B26054708825
:10340000C2B22846691CCDB22254B08800122946A7
:103410006A1CD5B26054B088C2B22846691CCDB2CD
:103420002254B2886019B11DFCF7CAFEB088284446
:10343000C5B2B6F86A00001229466A1CD5B26054BB
:1034400000E022E0B6F86A00C2B22946681CC5B2A4
:103450006254FF222846691CCDB22254AA22284673
:10346000691CCDB222543878012805D1294620465E
:1034700000F0C0F8814604E029462046FFF7EEFC44
:10348000814621460020FFF747FE4846BDE8F08709
:1034900000B50146FFF74CFC0A68801A4A68904262
:1034A00001DB012000BD0020FCE7D0E9001211443F
:1034B0000160704700B50146FFF73AFC086000BDA7
:1034C00000B502465160FFF733FC106000BD0000FC
:1034D00000B587B001210920FEF712FE0121880402
:1034E000FEF7FEFD4FF48060ADF8180003208DF864
:1034F0001A0018208DF81B0006A92848FDF768FB64
:103500004FF40060ADF8180004208DF81B0006A9E8
:103510002248FDF75DFB4FF4E13002900020ADF84A
:103520000C00ADF80E00ADF81000ADF814000C2042
:10353000ADF812000020ADF80000ADF802004FF425
:103540000070ADF804000020ADF80600694614488C
:10355000FFF723F902A91248FFF78CF9012240F284
:1035600025510F48FFF765F9002240F227710C48FA
:10357000FFF75FF901210A48FFF720F90521094803
:10358000FFF79EFF6A2108480068FCF732FE6A21B7
:1035900006480068FCF72DFE07B000BD000C014096
:1035A000004800406C0000206400002068000020FB
:1035B00010B50D4800680088642814DA0B48FFF73E
:1035C00079FF0B48FFF7A4F9C1B2074800680288E9
:1035D000054800680088401C034B1B68188002489F
:1035E0000068001D815410BD640000206C000020A4
:1035F0000048004070B505460C46642C2FDC00BF27
:103600001848006890F86800C0F300000128F7D05F
:10361000FCF784FD064601211248006890F8680016
:1036200061F300000F49096881F8680022462946C5
:103630000C480068001DFCF7C3FD0A480068448080
:1036400000200849096808803046FCF76BFD01221C
:1036500040F227710448FFF7ECF8002070BD4FF0EE
:10366000FF30FBE7680000200048004010B5134819
:1036700000680088114909684988884211DA0F48B2
:10368000006802880D480068001D815C0C48FFF747
:1036900044F90A4800680088401C08490968088005
:1036A0000AE0002240F227710548FFF7C2F86A21BC
:1036B00002480068FCF79DFD10BD00006800002076
:1036C0000048004070B504462078FF280ED160788D
:1036D000801CC5B2681EC1B22046FDF706FB064637
:1036E000681E205CB04201D1002070BD4FF0FF3059
:1036F000FBE770B506460D462846FFF7E3FF0028B6
:1037000002DA4FF0FF3070BD68210020FFF71EFD88
:10371000044614B94FF0FF30F5E7A878A070E878B8
:103720002070287960706878001FE070E078642865
:1037300006DD21460020FFF7EFFC4FF0FF30E2E707
:10374000E278691D201DFCF73BFDE078801D70804C
:1037500074600020D7E7000070B505466C682078DB
:10376000012806D0022811D003281CD004282AD111
:1037700021E002201849087018480068FDF71EFD76
:1037800001206070284600F04BF81DE0012012492E
:10379000087012480068FDF711FD0120607028468E
:1037A00000F03EF810E0FFF71FF901206070284696
:1037B00000F036F808E0FFF7FFF8012060702846B7
:1037C00000F02EF800E000BF00BF21460020FFF708
:1037D000A3FC002070BD0000B800002008000020FD
:1037E00000B585B0FF208DF8000000208DF80100A5
:1037F0008DF8020000218DF803100648019006485C
:10380000029006480390002004906846FFF7F2FCFF
:1038100005B000BDF336000821380008593700080C
:103820002DE9F04707467E68F078801D00F0FF081C
:1038300000254FF0FF3941460020FFF787FC044682
:103840009CB3FF222846691CCDB22254F078001D9B
:10385000C2B22846691CCDB22254B2782846691CEF
:10386000CDB2225432782846691CCDB222547278E7
:103870002846691CCDB22254F2786019311DFCF73C
:103880009FFCF0782844C5B229462046FDF72DFA62
:1038900029466A1CD5B260543878012806D12946D9
:1038A0002046FFF7A7FE814605E008E029462046AE
:1038B000FFF7D4FA814621460020FFF72DFC484649
:1038C000BDE8F08700A24A0400A24A0400A24A040C
:1038D0000051250200A24A0400000100020001007C
:1038E00003000100020001000400010002000100C9
:1038F00003000100020001000500010002000100B8
:1039000003000100020001000400010002000100A8
:103910000300010002000100060001000200010096
:103920000300010002000100040001000200010088
:103930000300010002000100050001000200010077
:103940000300010002000100040001000200010068
:103950000300010002000100070001000200010055
:103960000300010002000100040001000200010048
:103970000300010002000100050001000200010037
:103980000300010002000100040001000200010028
:103990000300010002000100060001000200010016
:1039A0000300010002000100040001000200010008
:1039B00003000100020001000500010002000100F7
:1039C00003000100020001000400010002000100E8
:1039D00003000100020001000002000200020002D8
:1039E0004001000001000000200000002000000055
:1039F0000028000020000000183A00080000002005
:103A0000DC000000BC2B0008F43A0008DC000020B9
:103A100094490000CC2B00080000000000000000CA
:103A2000000000000000000000000000010203048C
:103A3000010203040607080902040608000000004A
:103A40000000000000000000000000000000000076
:103A50000000000000000000000000000000000066
:103A60000000000000000000000000000000000056
:103A7000000000000000000000000000101C0020FA
:103A80007A1C00200000000000000000E41C002060
:103A90004B1D00200000000000000000000000009E
:103AA0000000000000000000000C0140000C01407C
:103AB000000C0140000C014000000000000000006C
:103AC00000000000000000000000000000000000F6
:103AD00000000000E52F0008D9300008F01D00208C
:103AE00000000068F0450020200000680000000091
:043AF00000000000D2
:04000005080000ED02
:00000001FF
